:100000000C94EA000C9412010C9412010C9412014D
:100010000C9412010C9412010C9412010C94120114
:100020000C9412010C9412010C94660F0C94040EA3
:100030000C9412010C9412010C9412010C941201F4
:100040000C9412010C9412010C9412010C941201E4
:100050000C9412010C9412010C9412010C94A90935
:100060000C9412010C9476040C9412010C9412015D
:100070000C9412010C9435040C9412010C9412018E
:100080000C9412010C9412010C9412010C941201A4
:100090000C9412010C9412010C9412010C94120194
:1000A0000C9412010C9412010C941201EC08EF084C
:1000B000DE08E208E808100910091009F308F7083B
:1000C000FB080109050910090B09000000020009DD
:1000D0000F0000030401000C0000000000000000FD
:1000E00000000000000000000408020110408040F1
:1000F000102040804080080204018040201002014E
:10010000108010204040200404040404030405026D
:1001100002020204030202020206060606060604A2
:10012000040202020404000000002300260029004B
:100130002C002F0000000000250028002B002E00BE
:10014000310000000000240027002A002D003000AC
:10015000080B000202020100090400000102020073
:1001600000052400100105240101010424020605F4
:100170002406000107058103100040090401000264
:100180000A00000007050202400000070583024044
:10019000000012010002EF020140DD290180000190
:1001A000010200011201000200000040DD2901806F
:1001B000000101020001456D626564646564204DC3
:1001C0006963726F004D6F6A6F2056330004030934
:1001D0000400D30B11241FBECFEFDAE0DEBFCDBF8A
:1001E00011E0A0E0B1E0ECEEF0E202C005900D926B
:1001F000AA32B107D9F726E0AAE2B1E001C01D9208
:10020000A534B207E1F711E0C4EDD1E004C02297B4
:10021000FE010E947010C23DD107C9F70E94AA0AD0
:100220000C9474100C9400008EBD0DB407FEFDCF2D
:100230008EB50895599885E00E94140180E00E94CF
:10024000140180FDFBCF599A0895209A289A23988B
:100250000E949E0884E00E94C60880E00E94C108B7
:1002600081E00C94B8080E94250159988FE90E94FA
:10027000140180E00E94140180932A01599A0C9481
:10028000B4080E9425010E941A01599886E00E9434
:100290001401599A599881E00E94140180E00E944B
:1002A0001401599A599886E00E941401599A599854
:1002B00080E60E941401599A0E941A010C94B40815
:1002C0001F93CF93DF9300D01F92CDB7DEB7182FC7
:1002D0004B836A8379830E9425010E941A015998F1
:1002E00086E00E941401599A599882E00E941401F4
:1002F000812F0E9414017981872F0E9414016A8145
:10030000862F0E9414014B81842F0E941401599A58
:100310000F900F900F90DF91CF911F910C94B40824
:10032000599881E090E00E944A0A8EE00E9480097C
:10033000892BD9F3599A08958F929F92AF92BF92C9
:10034000CF92DF92EF92FF920F931F93CF93DF93A1
:100350006B017C015A0189010E942501C0E0D0E0B7
:10036000C017D10748F50E941A01599886E00E94EB
:100370001401599A599882E00E9414018E2D0E940E
:1003800014018D2D0E9414018C2D0E941401450131
:100390008C0E9D1E2196F40181914F010E94140143
:1003A000FFEFCF1ADF0AEF0AFF0AC017D10711F0DB
:1003B000C110F0CF599AD4CFDF91CF911F910F91F7
:1003C000FF90EF90DF90CF90BF90AF909F908F9075
:1003D0000C94B4086F927F928F929F92AF92BF92CB
:1003E000CF92DF92EF92FF920F931F93CF93DF9301
:1003F0006B017C01EA01890160FF0EC02115310506
:1004000009F486C049910E9460018FEFC81AD80A8A
:10041000E80AF80A015011090230110540F40130D0
:10042000110509F075C04881C701B60161C00E947D
:1004300025010E941A01599880E70E941401599AD7
:10044000599886E00E941401599A59988DEA0E94A1
:1004500014018E2D0E9414018D2D0E9414018C2DEB
:100460000E94140188810E94140189810E94140154
:10047000599A0E94900182E0882E912C580192E0B6
:10048000A91AB108A814B904B0F059988DEA0E94CD
:1004900014013E01680C791CF30180810E94140153
:1004A000F30181810E941401599A0E949001F2E0A7
:1004B0008F0E911CE7CFE894A0F8C50102965C016D
:1004C000599884E00E941401599A599880E80E9432
:1004D0001401599A0E94B408A016B106C8F4CA0DB6
:1004E000DB1DC701B6016A0D7B1D811D911D488171
:1004F000DF91CF911F910F91FF90EF90DF90CF9000
:10050000BF90AF909F908F907F906F900C94600100
:10051000DF91CF911F910F91FF90EF90DF90CF90DF
:10052000BF90AF909F908F907F906F900895E091D3
:100530002A01EF3B11F40C94EA010C949C01CF9238
:10054000DF92FF920F931F93CF93DF9300D000D0E1
:10055000CDB7DEB7F82E89014B835A8369839C831C
:100560000E9425010E941A01599883E00E941401FB
:100570006981862F0E9414015A81852F0E941401DF
:100580004B81842F0E941401CF2C9C81D92E0C0DFD
:100590001D1DC016D10639F080E00E941401F6013D
:1005A00081936F01F6CF599A0F900F900F900F9093
:1005B000DF91CF911F910F91FF90DF90CF900C941E
:1005C000B408E8E4F1E0A081B1816C93808191816D
:1005D000019691838083268137818217930721F4C6
:1005E00084819581918380832FB7F8948285938548
:1005F0000196938782872FBF089510927A001092F8
:10060000C9000E94B40858983F9A479855985D9A37
:100610000895E8E4F1E02FB7F89484E591E0918340
:100620008083938382839583848384ED91E0978391
:10063000868380E890E091878087138612862FBF9B
:10064000ECE3F1E02FB7F89484ED91E0918380839F
:10065000938382839583848384ED95E09783868357
:1006600080E094E091878087138612862FBF8FE009
:100670008093040184B18F7084B985B18F7085B97E
:1006800081E090E09093CD008093CC0086E0809351
:10069000CA0082E08093C80088E98093C900599A13
:1006A000209A289A0E942501539A52985A9A559A4C
:1006B0005D983F98589A5098089510927A0090E467
:1006C000499FA0011124922F9770942B90937C0046
:1006D000283030F090E8699FB0011124606203C0B7
:1006E00067956627679560937B0020930301886E6A
:1006F00080937A0008950F931F9380FD2EC00E946F
:10070000F30900912C0110912D0120912E013091BF
:100710002F01601B710B820B930B6A3F71058105E2
:10072000910570F480912B018F5F80932B018530B0
:10073000A0F081E090E090930601809305010DC048
:100740000E94F30960932C0170932D0180932E0178
:1007500090932F0181E080932B011F910F910895B9
:1007600023B122952F7080910401281789F02093DE
:100770000401223020F08CEF820F863038F4409153
:10078000020160910101809100016BC010927A001A
:100790002FB7F89480915201909153012FBF892B6C
:1007A00009F462C0E0914A01F0914B014191F0934C
:1007B0004B01E0934A0180914E0190914F01E8175F
:1007C000F90741F420914C0130914D0130934B01D8
:1007D00020934A01E0914A01F0914B012191F0935D
:1007E0004B01E0934A01E817F90741F480914C016D
:1007F00090914D0190934B0180934A013FB7F8943B
:1008000080915201909153010297909353018093EC
:1008100052013FBF28984EBD0DB407FEFDCF8EB5E7
:100820002EBD0DB407FEFDCF4EB5289A8A3A09F0C9
:10083000AFCF842F87708093000150E0BA0193E01E
:10084000759567959A95E1F761706093010124E0D1
:10085000559547952A95E1F7437040930201209101
:1008600004010E945D0394CF08951F920F920FB66A
:100870000F9211242F933F934F935F936F937F9326
:100880008F939F93AF93BF93EF93FF936091780003
:1008900088E491E00E94E102809103016091790077
:1008A00020E1829FC0011124682B88E491E00E941E
:1008B000E102FF91EF91BF91AF919F918F917F9155
:1008C0006F915F914F913F912F910F900FBE0F90BD
:1008D0001F901895E9ECF0E0808180618083089595
:1008E000E9ECF0E080818F7E808308951F920F9263
:1008F0000FB60F9211242F933F934F935F936F93F3
:100900007F938F939F93AF93BF93EF93FF93E09168
:100910003C01F0913D018091CE00808380913C01AB
:1009200090913D01019690933D0180933C0120916F
:100930004201309143018217930741F480914001B5
:100940009091410190933D0180933C01809146013B
:100950009091470101969093470180934601883E0C
:1009600023E0920730F08D3F934038F00E947004EE
:1009700004C08BB190E289278BB9FF91EF91BF91B1
:10098000AF919F918F917F916F915F914F913F9127
:100990002F910F900FBE0F901F9018955D9A589849
:1009A0004798509A8FEF84B908955898479861E016
:1009B00070E080E090E00E94220A479A4D9BFECFB3
:1009C000089585B9589A589808958FEF85B98AE0A7
:1009D00090E0589A58980197E1F708958F929F9266
:1009E000AF92BF92CF92DF92EF92FF920F931F933D
:1009F000CF93DF930E94CE040E94D50425E030E01F
:100A000040E050E0BA0184E591E00E949F028091AD
:100A100054018A3A09F059C0C0905501809156019D
:100A2000D12CE12CF12CD82A80915701E82A809111
:100A30005801F82A45E050E060E070E01FEF4A01FD
:100A40005B018FEF981AA80AB80A8C149D04AE04B3
:100A5000BF0498F420E031E084E591E00E949F0219
:100A600014B9C4E5D1E089910E94E10482E0C43563
:100A7000D807C9F7B501A401E2CF4C155D056E0595
:100A80007F0570F0DF91CF911F910F91FF90EF9054
:100A9000DF90CF90BF90AF909F908F900C94E50423
:100AA0008BEFC80E2C2D30E084E591E00E949F0270
:100AB0008FEF84B904E511E0E8018C2F801B8C15C1
:100AC00008F789910E94E104F8CFDF91CF911F913F
:100AD0000F91FF90EF90DF90CF90BF90AF909F90DD
:100AE0008F90089580E090E020E80FB6F89420936E
:100AF0006100809361000FBE519A599A509A3F9AB3
:100B000083EF80937E0083E080937D0040E052EC91
:100B100061E070E08EED95E00E94B50B78940E9444
:100B200033010E94EE040C940903EF92FF920F939D
:100B30001F93CF93DF938EED95E00E94BB0B88232C
:100B400009F48CC02FB7F8944091460150914701A9
:100B50002FBF4115510509F47BC060913E01709192
:100B60003F018B01040F151F209142013091430179
:100B700020173107D8F08EED95E00E94040BEC01B0
:100B800080913E0190913F018C0F9D1F90933F01FA
:100B900080933E01209142013091430182179307D7
:100BA00099F580914001909141012AC0021B130BDD
:100BB0007A01E01AF10AA7018EED95E00E94040B7C
:100BC000EC018E159F05B1F46091400170914101D7
:100BD000A8018EED95E00E94040B20914001309118
:100BE0004101280F391F30933F0120933E01C80F68
:100BF000D91F0AC080913E0190913F018C0F9D1F2B
:100C000090933F0180933E012FB7F8948091460165
:100C1000909147018C1B9D0B909347018093460157
:100C20002FBF2FB7F89480914601909147012FBFB5
:100C3000883E93406CF40E946A048BB190E289274D
:100C40008BB906C02091C80025FFFCCF8093CE0051
:100C50008EED95E00E94F70A97FFF4CFDF91CF91D8
:100C60001F910F91FF90EF9008950E9495050C94AD
:100C7000B0038F929F92AF92BF92CF92DF92EF928A
:100C8000FF920F931F93CF93DF93C0910501D091F3
:100C90000601C230D105A1F0C330D10509F433C239
:100CA000219709F03EC20E94FD0282E090E09093FD
:100CB00006018093050110923B0110923A0131C266
:100CC0008EED95E00E94F70AFC01482F97FD29C29E
:100CD00020913A0130913B012230310509F4B3C033
:100CE00044F42115310581F02130310509F44DC05E
:100CF00018C22430310509F47FC10CF44AC12530F3
:100D0000310509F4DFC10DC210923601109237018E
:100D10001092380110923901109232011092330171
:100D20001092340110923501863429F41092310169
:100D30001092300107C08635E1F41092310181E054
:100D40008093300181E090E090933B0180933A01E1
:100D500062E58EED95E0DF91CF911F910F91FF90AD
:100D6000EF90DF90CF90BF90AF909F908F900C94BA
:100D7000BD0A823521F481E080933101E3CF8534CF
:100D800009F0CFC10E94410135C180913601909197
:100D90003701A0913801B09139018C019D010F5F9D
:100DA0001F4F2F4F3F4F0093360110933701209371
:100DB00038013093390150E060E070E0E3E0880FE3
:100DC000991FEA95E1F704C0440F551F661F771F6E
:100DD0008A95D2F78091320190913301A09134012C
:100DE000B0913501842B952BA62BB72B8093320124
:100DF00090933301A0933401B09335010430110571
:100E00002105310508F48DC1109236011092370189
:100E1000109238011092390180913101882359F0E4
:100E200083E090E090933B0180933A010E94CE04CE
:100E30000E94D50406C0D0933B01C0933A010E94A2
:100E400041016FE486CFC0903601D0903701E09029
:100E50003801F09039012BEFC216D104E104F104FE
:100E600010F4CC2D02C0C5E0CC0D4C2F50E0DA01BF
:100E7000AC5ABE4FEC93970186010B5F1F4F2F4F6B
:100E80003F4FD701C6010196A11DB11D80933601C8
:100E900090933701A0933801B09339010F3F69F067
:100EA000C0903201D0903301E0903401F0903501D0
:100EB0008C159D05AE05BF0569F44F5F5F4FC901F5
:100EC000B8016C1B7109810991099A0144E551E04F
:100ED0000E9497024091360150913701609138018C
:100EE000709139018091320190913301A0913401C8
:100EF000B0913501481759076A077B0709F011C1FE
:100F000082E390E00E944A0A809036019090370177
:100F1000A0903801B090390135E0830E911CA11CDE
:100F2000B11CC12CD12C7601C394C0E0D0E0B50136
:100F3000A4010C2E04C076956795579547950A94A1
:100F4000D2F7C701B6010E94600182E390E00E94DF
:100F50004A0A28962FEFC21AD20AE20AF20AC032CF
:100F6000D10529F782E390E00E944A0A4AEA60E04C
:100F700070E0CB010E94600164E48EED95E00E9478
:100F8000BD0A80913001882309F495C084E090E087
:100F900094C00E94E1048091360190913701A091A4
:100FA0003801B09139010196A11DB11D8093360120
:100FB00090933701A0933801B093390140913201E9
:100FC0005091330160913401709135018417950778
:100FD000A607B70709F0A5C00E94E50410923B01DF
:100FE00010923A0183E090E090930601809305010E
:100FF0000E94090364E4ADCE833509F092C080916C
:10100000360190913701A0913801B09139010596D0
:10101000A11DB11D8093360190933701A093380133
:10102000B0933901C12CD12C760100E011E0812C64
:10103000912C540193948091360190913701A091A5
:101040003801B0913901C816D906EA06FB0698F5B1
:10105000B701A6015F5F6F4F7F4F84179507A60703
:10106000B70720F4EC01CC19DD0902C0C0E0D1E0E3
:101070009E01B701A60184E591E00E949F02AE01A6
:1010800064E571E08EED95E00E94040BEC016AE0EE
:1010900070E080E090E00E94220AC8018C1B9D0B4A
:1010A000A5019401281B390B41095109C20ED31E19
:1010B000E41EF51EC0CF85E090E090933B01809345
:1010C0003A012FC08C3469F50E94EE0464E48EED81
:1010D00095E00E94BD0A10923B0110923A0183E014
:1010E00090E09093060180930501DF91CF911F91CD
:1010F0000F91FF90EF90DF90CF90BF90AF909F90B7
:101100008F900C940903DF91CF911F910F91FF9065
:10111000EF90DF90CF90BF90AF909F908F900C9406
:101120003506DF91CF911F910F91FF90EF90DF90E7
:10113000CF90BF90AF909F908F90089561E081E134
:101140000E944A0961E081E10E9411098CB5806129
:101150008CBD8CB580648CBD61E08FE00E9411096C
:1011600061E080E10C9411098CB58F7B8CBD0895F2
:10117000811103C08CB5806202C08CB58F7D8CBD9F
:1011800008959CB5937F982B9CBD08952CB5982FFE
:1011900093702C7F922B9CBD9DB582FB882780F994
:1011A0009E7F982B9DBD089590E0FC013197EF3014
:1011B000F105B0F5EA5AFF4F0C946E108091800053
:1011C0008F7703C0809180008F7D80938000089589
:1011D00080918000877FF9CF84B58F7702C084B576
:1011E0008F7D84BD0895809190008F7707C0809196
:1011F00090008F7D03C080919000877F8093900046
:1012000008958091C0008F7703C08091C0008F7DCA
:101210008093C00008958091C200877F8093C200B0
:101220000895CF93DF9390E0FC01E851FF4F2491A4
:10123000FC01E95FFE4F8491882349F190E0880F1B
:10124000991FFC01EE5BFE4FA591B4918C5C9E4F03
:10125000FC01C591D4919FB7611108C0F8948C919D
:10126000209582238C93888182230AC0623051F4B6
:10127000F8948C91322F309583238C938881822B24
:10128000888304C0F8948C91822B8C939FBFDF914C
:10129000CF9108950F931F93CF93DF931F92CDB7F4
:1012A000DEB7282F30E0F901E653FF4F8491F901B2
:1012B000E851FF4F1491F901E95FFE4F04910023BB
:1012C000C9F0882321F069830E94D4086981E02F46
:1012D000F0E0EE0FFF1FEC5CFE4FA591B4919FB7BD
:1012E000F8948C91611103C01095812301C0812B6A
:1012F0008C939FBF0F90DF91CF911F910F91089515
:10130000CF93DF93282F30E0F901E653FF4F84910C
:10131000F901E851FF4FD491F901E95FFE4FC49103
:10132000CC2391F081110E94D408EC2FF0E0EE0F55
:10133000FF1FEA5DFE4FA591B4912C912D2381E012
:1013400090E021F480E002C080E090E0DF91CF9156
:1013500008951F920F920FB60F9211242F933F936F
:101360008F939F93AF93BF938091D5059091D605AE
:10137000A091D705B091D8053091D40526E0230F70
:101380002D3720F40296A11DB11D05C029E8230FB9
:101390000396A11DB11D2093D4058093D50590938C
:1013A000D605A093D705B093D8058091D905909123
:1013B000DA05A091DB05B091DC050196A11DB11DF8
:1013C0008093D9059093DA05A093DB05B093DC05F3
:1013D000BF91AF919F918F913F912F910F900FBE31
:1013E0000F901F9018952FB7F8946091D5057091C4
:1013F000D6058091D7059091D8052FBF08953FB7A6
:10140000F8948091D9059091DA05A091DB05B0910F
:10141000DC0526B5A89B05C02F3F19F00196A11D3C
:10142000B11D3FBF6627782F892F9A2F620F711D3C
:10143000811D911D43E0660F771F881F991F4A95F4
:10144000D1F70895CF92DF92EF92FF92CF93DF937F
:101450006B017C010E94FF09EB01C114D104E1047E
:10146000F10489F00E946D100E94FF096C1B7D0B36
:10147000683E734090F381E0C81AD108E108F10892
:10148000C851DC4FEACFDF91CF91FF90EF90DF9012
:10149000CF9008958330910528F0880F991F049705
:1014A0000197F1F70895789484B5826084BD84B57E
:1014B000816084BD85B5826085BD85B5816085BD4F
:1014C000EEE6F0E0808181608083E1E8F0E0108268
:1014D000808182608083808181608083E0E8F0E0A9
:1014E000808181608083E1E9F0E080818260808397
:1014F000808181608083E0E9F0E080818160808389
:10150000E1ECF0E080818460808380818260808370
:10151000808181608083E3ECF0E080818160808362
:10152000E0ECF0E0808182608083E2ECF0E080819A
:1015300081608083EAE7F0E080818460808380813D
:101540008260808380818E7F8083808180688083B9
:10155000089508950E94530A0E94A90A8EE296E017
:101560000E94E00F0E947205C0E0D0E00E943906A0
:101570002097E1F30E940000F9CFCF93DF931F92F1
:10158000CDB7DEB76983DC01ED91FC910280F38178
:10159000E02D41E050E0BE016F5F7F4F09950F9055
:1015A000DF91CF910895CF93DF93EC018C859D85DA
:1015B00097FF05C082E00E94EC0C9D878C878C858C
:1015C0009D85DF91CF91089583E00C945C0FFC0121
:1015D0008485958597FD06C082E00E94950C90E079
:1015E0000196089582E00E94950C90E00895FC0118
:1015F0008485958597FD05C02FEF3FEF35872487BC
:10160000089582E00C94EC0CCF93DF93EC01809171
:101610001201882331F083E00E941D0D181619066F
:1016200034F081E090E09B838A8380E090E0DF915A
:10163000CF910895FC0120812E5F208342E450E089
:1016400060E571E080E80C94BE0D08950F93FC01F5
:1016500021818081813A59F4213209F070C047E03C
:1016600050E06BE071E080E00E94BE0D7BC08132F3
:1016700009F065C0233289F4838190E0982F882790
:101680003281832BA0E0B0E08093070190930801A2
:10169000A0930901B0930A0123C02032B9F467E096
:1016A00070E08BE091E00E94EF0D00910F0120911E
:1016B00010014091110160910B0170910C0180911A
:1016C0000D0190910E010E94250B0EC0223241F4B3
:1016D000828180931201809112010E947B0304C0D9
:1016E0002D7F203209F03EC080910B0190910C01BA
:1016F000A0910D01B0910E01803B9440A105B10570
:1017000001F58091120180FD1CC08091000890912C
:1017100001089093FF0A8093FE0A87E797E790936A
:101720000108809300082BE088E190E00FB6F89460
:10173000A895809360000FBE2093600013C080E0E6
:1017400012C088E10FB6F894809360001092600098
:101750000FBEA8958091FE0A9091FF0A9093010810
:101760008093000881E00F9108952FEF3FEFFC0177
:10177000358724870895CF9380911201C1E08111AC
:1017800001C0C0E08091DD05811108C0CC2331F09B
:101790006AE070E080E090E00E94220AC093DD05DC
:1017A0008C2FCF9108951092E1051092E00588EEFC
:1017B00093E0A0E0B0E08093E2059093E305A0936E
:1017C000E405B093E5058EE191E09093DF05809309
:1017D000DE058FEF9FEF9093EB058093EA05089568
:1017E00040913206509133062091300630913106F7
:1017F00042175307B4F49091E8009570E1F390918B
:10180000E80092FD19C08093F1008091320690911A
:10181000330601968F739927892B19F48EEF8093E5
:10182000E80080913206909133060196909333063A
:101830008093320681E0089580E00895CF92DF9290
:10184000FF920F931F93CF93DF931F92CDB7DEB715
:10185000082F162F862F880F8E5F99830E94F00B1A
:1018600083E00E94F00BF02EC02E9981D92E8C2D92
:101870008F19811778F4F60184910E94F00B082FDC
:1018800080E00E94F00B8023FFEFCF1ADF0A811166
:10189000EECF01C081E00F90DF91CF911F910F91AA
:1018A000FF90DF90CF9008958091D7008160809362
:1018B000D70080EA8093D80089B58F7E89BD89B52D
:1018C000826089BD09B400FEFDCF61E070E080E078
:1018D00090E00E94220A8091D8008F7C80618093E2
:1018E000D8008091E000807F8093E0000895CF933E
:1018F000DF931F92CDB7DEB71982CE0101960E9409
:101900001A0B0E945910BE016F5F7F4F0E94F10FAA
:1019100089810F90DF91CF9108952FB7FC0120832B
:10192000F89467706093E9000895CF93DF931F9256
:10193000CDB7DEB7682FCE0101960E948D0C809145
:10194000F20099819FBF0F90DF91CF910895FF9290
:101950000F931F93CF93DF9300D0CDB7DEB7F62E52
:101960008A0190913606992311F057FF03C08FEF3B
:101970009FEF2AC0682FCE0101967A830E948D0CBA
:101980008091F20090E0A8017A81801791070CF411
:10199000AC01EF2DF72FF40E84E6FE1631F08093A4
:1019A00037069091F1009193F8CF4115510521F040
:1019B0008091F200882321F089818FBFCA0104C081
:1019C0008BE68093E800F8CF0F900F90DF91CF91D6
:1019D0001F910F91FF900895CF93DF931F92CDB782
:1019E000DEB741E050E0BE016F5F7F4F0E94A70C61
:1019F000019719F4898190E002C08FEF9FEF0F905B
:101A0000DF91CF910895CF93DF931F92CDB7DEB7CB
:101A1000682FCE0101960E948D0C9091E800892FCD
:101A2000807295FF04C09091F20080E4891B998137
:101A30009FBF0F90DF91CF9108956F927F928F9209
:101A40009F92AF92BF92CF92DF92EF92FF920F934D
:101A50001F93CF93DF931F92CDB7DEB7D82E7B01B4
:101A6000B42EA52E80913606882369F0042F152FF9
:101A70008AEFC82E8D2D8072882E9AE3992E8D2D97
:101A80008074782E10C08FEF9FEF5DC08D2D0E9467
:101A9000030D81110CC0CA94B1F361E070E080E0E5
:101AA00090E00E94220A0115110581F743C06624C7
:101AB0006A94680E262D30E0021713070CF4602E8E
:101AC0006D2DCE0101960E948D0C8091E80085FF5E
:101AD0002EC0262D30E0021B130B882039F06A94AB
:101AE0008FEF6816B1F01092F100F9CFF701862D53
:101AF000D7FE07C0815058F094919093F100319631
:101B0000F9CF815020F091919093F100FACFE20E3D
:101B1000F31E8091E80085FF13C08D2D0E94030DF8
:101B2000813071F00115110511F4711009C089811E
:101B30008FBFB9CF84E6809338068B2D9A2D03C0D2
:101B40009092E800F4CF0F90DF91CF911F910F9109
:101B5000FF90EF90DF90CF90BF90AF909F908F90CD
:101B60007F906F9008951092E900109233061092C2
:101B7000320690933106809330060895CF92DF921B
:101B8000FF920F931F93CF93DF9300D0CDB7DEB7B3
:101B9000F82E8A016B0101151105B1F0F601F7FE6F
:101BA00002C0849101C0808149835A830E94F00B56
:101BB00001501109FFEFCF1ADF0A49815A818111C3
:101BC000EACF8FEF9FEF01C0CA010F900F90DF9116
:101BD000CF911F910F91FF90DF90CF9008952091AA
:101BE000E80022FFFCCFFC01860F8E1729F09091B0
:101BF000F10090833196F9CF84E6809337068BEF1E
:101C00008093E800CB0108951F920F920FB60F92B8
:101C10001124DF92EF92FF920F931F932F933F9324
:101C20004F935F936F937F938F939F93AF93BF93E4
:101C3000EF93FF93CF93DF93CDB7DEB76197DEBF0E
:101C4000CDBF1092E9008091E80083FF17C1FE012B
:101C50003A968F01AE014E5E5F4F9F012F5F3F4F5F
:101C60008091F10080832417350711F0F901F5CF39
:101C700084E68093370682EF8093E8005A8557FF09
:101C800005C08091E80080FFFCCF03C08EEF8093F9
:101C9000E800852F807609F0D8C04B858C85DD84DF
:101CA00041110CC0503829F4809135068093F10021
:101CB00002C01092F1001092F100D9C0282F30E03C
:101CC0003D29413051F45111D2C02130310509F084
:101CD000CEC0809135068D7F0BC0433061F4511129
:101CE000C6C02130310509F0C2C08091350682603E
:101CF00080933506BCC0453041F49091E80090FFD8
:101D0000FCCF80688093E300B2C0463009F074C015
:101D1000E888F98822E0D2122CC080E090E00E948E
:101D2000B30D0E94770C99E08E010F5F1F4FF801F1
:101D3000292F11922A95E9F79983DA8291E09E83FF
:101D400090EA98879AEF998720913206309133066E
:101D5000275F3F4F3C832B838D83C7010E94B30DC8
:101D600049E050E0B80180E00E94BE0D0E94770C6F
:101D70007EC0C7010E94B30D0E945910B8010E9495
:101D80001A10009719F00CF072C075C081E0D812DB
:101D90000EC088899989089719F481E080932F06ED
:101DA00080912F06811118C064EA71E01AC0E3E047
:101DB000DE1261C08C85882391F0823021F467E0C7
:101DC00085EC91E006C0813009F055C06EE086EBED
:101DD00091E00E941E0C49C062E971E002C06DEC06
:101DE00071E06115710509F446C0FB01449150E0B2
:101DF00080E80E94BE0D3BC04730E9F1483021F435
:101E000081E08093F10033C0493089F5537099F532
:101E1000E4E1F1E081E021E036E39081992361F093
:101E20008093E9002093EB0091919093EC00309324
:101E3000ED008F5F873089F78EE78093EA0010927C
:101E4000EA008C858093360612C0888999890E94A1
:101E5000B30D8E85811104C0C8010E94260B05C0F8
:101E60000E945910B8010E943910882321F08EEF8A
:101E70008093E80003C081E28093EB0061960FB687
:101E8000F894DEBF0FBECDBFDF91CF91FF91EF91F0
:101E9000BF91AF919F918F917F916F915F914F9182
:101EA0003F912F911F910F91FF90EF90DF900F9036
:101EB0000FBE0F901F9018958093E9008091F2005B
:101EC000882319F08AE38093E80008951F920F9207
:101ED0000FB60F9211242F933F934F935F936F93FD
:101EE0007F938F939F93AF93BF93CF93EF93FF9382
:101EF000C091E1008091E100837F8093E1008093B5
:101F0000E100C3FF0FC01092E90081E08093EB0075
:101F10001092EC0082E38093ED001092360688E088
:101F20008093F000C2FF15C083E00E945C0F809197
:101F30003806882329F0809138068150809338062E
:101F400080913706882329F080913706815080934D
:101F50003706C4FF10C08091E2008E7E81608093BE
:101F6000E2008091E1008F7E8093E1008091340651
:101F70008E7E806111C0C0FF11C08091E2008E7E14
:101F800080618093E2008091E1008E7E8093E10089
:101F9000809134068E7E816080933406FF91EF91AC
:101FA000CF91BF91AF919F918F917F916F915F91F1
:101FB0004F913F912F910F900FBE0F901F9018954A
:101FC0001092360610923506109234060E94540C78
:101FD000E1EEF0E080818E7E80838DE08093E200F0
:101FE0000895EF92FF920F931F93CF93DF937B019E
:101FF000FC01C281D38100E010E0209781F0E881EC
:10200000F9810280F381E02DB701CE01099597FD9A
:1020100008C0080F191F0884D985C02DEECFC8014C
:1020200002C08FEF9FEFDF91CF911F910F91FF9033
:10203000EF9008950F931F93CF93DF938B01FC01D3
:10204000C281D381209771F0E881F9810480F58104
:10205000E02DB801CE010995009731F40884D985A7
:10206000C02DF0CF80E090E0DF91CF911F910F91D4
:1020700008950F931F93CF93DF938B01FC01C281CF
:10208000D381209771F0E881F9810190F081E02DF2
:10209000B801CE010995811106C00884D985C02DEB
:1020A000F0CF80E001C081E0DF91CF911F910F91CF
:1020B000089580913D0681110DC082E0809339061C
:1020C00084E080933A0610923C0610923B0681E031
:1020D00080933D0689E396E008950895EE0FFF1F73
:0C20E0000590F491E02D0994F894FFCFD6
:1020EC000501010F0F0300FFFFFFFF00E1000000DF
:1020FC0000000000C1808100000000000000BD0A4B
:0A210C00040BE70AF70AD30AE40AFD
:00000001FF
